:020000040000FA
:1000000000000228BA30FE000330FF0080300000FC
:100010000000B3220000000083120000AF007F0840
:10002000AE00BC30B0000330B100831200002E08D7
:10003000B2002F08B300FF30AE07031CAF03330834
:10004000320403199A2804303007B200B301B30D0B
:100050003108B3073208FE003308FF00803000008B
:100060000000B3220000000083120000B5007F08EA
:10007000B4003008FE003108FF00803000000000AE
:10008000B3220000000083120000B700B3007F0815
:10009000B200B60002303007B200B301B30D310830
:1000A000B3073208FE003308FF0080300000000074
:1000B000B3220000000083120000B300B9007F08E3
:1000C000B800B200831200003408B8003508B90047
:1000D000FF30B407031CB50339083804031993280B
:1000E0003608FE003708FF00803000000000A02224
:1000F0000000000083120000B800320883120313CE
:100100008400831383120000331883173808831286
:100110000313800083120000B60A0319B70AB20A5B
:100120000319B30A6228063083120000B0070318CF
:10013000B10A152800000000E52908008316000018
:10014000B7007F0883160000BA0083160000B600CF
:100150007E08B9007D0883160000BC0083160000ED
:10016000B800370883160000BB008316000039086A
:1001700083160000BD00831600003A0883160000B5
:10018000B600831600003C0883160000B700FF008D
:100190003608000000002B2300000000831600003A
:1001A000B7007F08B60083160000BE00831600006B
:1001B000370883160000BF0083160000B6008316C0
:1001C00000003A0883160000B700831600003D08BF
:1001D00083160000B800FF003708000000002B2342
:1001E000000000007F0883160000B700831600009F
:1001F0003B0883160000B800831600003C088316F5
:100200000000B900FF003808000000002B230000A8
:1002100000007F0883160000B800B7073708B6074C
:10022000360883160000BF003E0883160000B600A3
:10023000831600003F0883160000B7003608FF0051
:10024000370808008316A0007F08A1007E08A400DC
:100250007D08A3007C08A200A501A601831626083C
:10026000803E803E031D3629033025020318832972
:1002700083162508023CA7002608031C260A003C1A
:10028000A8002708FD002808FE000230FF0000300B
:100290009E208316A8007F08A7002207A700230836
:1002A0000318230FA8072408A9002008AB00210881
:1002B000AA002508A51B6929003C03197029031011
:1002C0008316AB1B0314AB0CAA0C013E031C5F2965
:1002D000702903108316AA0DAB0D013E031C6A2979
:1002E00001308316AA05AB010030FD002A08FC008E
:1002F0002708FE002808FF00290891228316A50A76
:100300000319A60A2E29080083120000BB007F08EB
:10031000BA007E08BD007D08BC000314BB1F03109B
:10032000BE01BE0D3E0803199D293A09BF003B09D5
:10033000C000BF0A0319C00AA329831200003A08AB
:10034000BF003B08C000831200003F08BA0040080D
:10035000BB000314BD1F0310031CB6293C09BF00DA
:100360003D09C000BF0A0319C00ABC29831200005E
:100370003C08BF003D08C000831200003F08BC00DD
:10038000FD004008BD00FE003A08FF003B080000E9
:10039000000044220000000083120000BB007F0820
:1003A000BA003E080319DF293A09BE003B09BC0028
:1003B000BE0A0319BC0A3E08FF003C08E429831268
:1003C00000003A08FF003B08080010308316850043
:1003D0009F01831285018312051EEB29D422831607
:1003E000AC00AD00AE010630FD000030FE002D086F
:1003F000FF00003084218316AD007F08AC00AE0002
:100400002E0AAC00AD010030AF00B030AE00FC00F1
:100410002F08FD000030FE002C08FF0000302221D4
:10042000831634088316AC000430FF002C087823B0
:100430007F088316AC00831632088316AD000230A5
:10044000FF002D0878237F088316AD00AC078316C4
:1004500030088316AD002C0783128500FA30FF00A8
:10046000003000238316AC018312051E392A83163F
:10047000AC0A83162C08013A0319322AFA30FF001D
:1004800000300023EB29080083120000C9007F0818
:10049000C8007E08CB007D08CA00CC01CD018312C4
:1004A00000004B088039031D0130CE004E08031DAB
:1004B000702A0310CA0DCB0D4B084902031D622A96
:1004C0004A08480203186A2A031083120000CB0C62
:1004D000CA0C702A83120000CD0A4D08CC004F2AA6
:1004E000831200004B084902031D782A4A0848027B
:1004F000031C822A831200004A08C8024B08031C0E
:100500004B0FC902031083120000CB0CCA0C4C081D
:10051000CD00CC034D08031D702A4808FF00490890
:100520000800003A0319952A08007E088400831306
:100530007F1883177C088000840A7D0880000800EB
:10054000003A0319A72A803A0319AE2A00347E081C
:10055000840083137F188317000808007F088A002F
:100560007E0882000800003A0319BB2A803A03196A
:10057000C52AFF0100347E08840083137F18831787
:100580000008FF00840A0008080000000000AE22F6
:10059000FD00FE0FFF03FF0A00000000AE22FC007A
:1005A0007D08FF007C08080083124F088316A00016
:1005B000831250088316A1000130A005A101031089
:1005C0008312D00CCF0C831620080319F82A83124B
:1005D0004F088316A000831250088316A100B43080
:1005E000A10620088312CF00831621088312D000B1
:1005F00083124F088316A0000730A00520080800CA
:100600008316A0007F08A100A401A301831620087F
:100610002302031D0D2B2108240203182A2BFB3073
:100620008316A2000430A500FF3083162207A6001F
:10063000FF30A70025080318250FA7072608A200EA
:100640002708A50027082604031D142BA40A031954
:10065000A30A062B080083120000C1007F08C20015
:10066000C301C401C501083083120000450203180C
:10067000502B0310C30DC40DC11F472B0030C70002
:100680004208C600C30747080318470FC407831270
:1006900000004108C6000310460DC100C50A332BF7
:1006A000831200004308FF00440808008312000082
:1006B000A9007F08AA002908AB00A900AC012A08FC
:1006C000AB00AD01AB1BAD032B08FD002D08FE00F8
:1006D0002908FF002C08000000009E2000000000F8
:1006E00083120000AA007F08A900FF002A08080062
:1006F00083120000A200A0007F08A100A301A21B9A
:10070000A3032108A000A401A01BA4032008FD004E
:100710002408FE002208FF002308000000009E209D
:100720000000000083120000A1007F08A000FF006D
:100730002108080083120000A5007F08A6002508F4
:10074000A700A500A801A51BA8032608A700FD0077
:100750000030FE002508FF002808000000009E2051
:100760000000000083120000A6007F08A500FF0023
:100770002608080002340034C83403344F340034EF
:1007800002340034CA3403345134003401340034A8
:06079000E134AC3400343A
:02400E00D73F9A
:00000001FF
