:02000000FA2FD5
:100E4800E134AC34F300F201731C2E2F7008F1006A
:100E58007108F2070310F00D0310F30C7308031D5B
:100E6800282F72080800013083122D05F000003089
:100E78002E05F10001300310AE0CAD0CFF3E031D32
:100E88003F2F7008710403194D2F0030AD06B430A0
:100E9800AE062D0807390800F5000830F600F701FE
:100EA8007508F30007300310F30CFF3E031D572F9E
:100EB8007708F40074077304F7000310F50D72083F
:100EC8007702031C692F7208F7020130F602031D2E
:100ED800542F77080800F201F30171087302031D0B
:100EE800772F7008720203180800F401F501013029
:100EF800F4070318F50A0030F50704307502FB30D3
:100F080003197402031C7B2F0130F2070318F30A3C
:100F18000030F307712F831685010630F20037275A
:100F28005027013EAC002C08A200A3012208A4000F
:100F38002308A5002508F5002408F4002630F6004B
:100F4800C3278312051E912F261CAD2F831205146B
:100F5800AF2F83120510281CB42F83128514B62FC7
:100F6800831285102A1CBB2F83120515BD2F8312EF
:100F78000511FA30F0000030F1006F27912FA00121
:100F8800A1018312200AF7007508F9007408F80017
:100F9800D02F790DF90CF80CF70BCD2F013078050F
:100FA800FA0000307905FB00FE30F00083122008BB
:100FB80026277607FC007C08043E84007A08831301
:100FC8008000840A7B0880000130A0070318A10A6A
:100FD8000030A1072108803AFF0080307F02031DFE
:100FE800F72F0330200203180800C52F2427AD006F
:080FF8002527AE0083018F2FB5
:02400E00FF3C75
:00000001FF
