:100000000C9452010C947A010C947A010C947A01AC
:100010000C947A010C947A010C947A010C947A0174
:100020000C947A010C947A010C947A010C947A0164
:100030000C947A010C947A010C947A010C947A0154
:100040000C945B060C947A010C94CB060C94A506D8
:100050000C947A010C947A010C947A010C947A0134
:100060000C947A010C947A01000000000000005FFB
:1000700000000007000700147F147F14242A7F2A41
:10008000122313086462364955225000050300000C
:10009000001C2241000041221C0014083E081408E4
:1000A000083E0808005030000008080808080060F2
:1000B00060000020100804023E5149453E00427F86
:1000C000400042615149462141454B311814127F8D
:1000D0001027454545393C4A494930017109050316
:1000E0003649494936064949291E0036360000007E
:1000F0005636000008142241001414141414004150
:100100002214080201510906324979413E7E11113B
:10011000117E7F494949363E414141227F4141227A
:100120001C7F494949417F090909013E4149497AF2
:100130007F0808087F00417F41002040413F017F48
:10014000081422417F404040407F020C027F7F0420
:1001500008107F3E4141413E7F090909063E415159
:10016000215E7F09192946464949493101017F012C
:10017000013F4040403F1F2040201F3F4038403F4C
:100180006314081463070870080761514945430068
:100190007F41410002040810200041417F00040219
:1001A0000102044040404040000102040020545439
:1001B00054787F48444438384444442038444448C0
:1001C0007F3854545418087E0901020C5252523E92
:1001D0007F0804047800447D40002040443D007FB7
:1001E0001028440000417F40007C041804787C08FB
:1001F00004047838444444387C1414140808141453
:10020000187C7C080404084854545420043F44409B
:10021000203C4040207C1C2040201C3C4030403C86
:1002200044281028440C5050503C4464544C440022
:100230000836410000007F00000041360800100829
:100240000810080000000000000000002400270043
:100250002A0000000000250028002B0000000000FC
:1002600023002600290004040404040404040202F8
:100270000202020203030303030301020408102025
:100280004080010204081020010204081020000030
:100290000008000201000003040700000000000045
:1002A0000000FD0611241FBECFEFD8E0DEBFCDBF9A
:1002B00011E0A0E0B1E0ECEEFEE102C005900D928D
:1002C000A239B107D9F722E0A2E9B1E001C01D923D
:1002D000AE3DB207E1F711E0C2E5D1E004C02197DD
:1002E000FE010E946E0FC135D107C9F70E94950724
:1002F0000C94740F0C940000833081F028F481304A
:1003000099F08230A9F008958730A9F08830C9F0BB
:100310008430B1F4809180008F7D03C08091800093
:100320008F7780938000089584B58F7784BD08957A
:1003300084B58F7DFBCF8091B0008F778093B00024
:1003400008958091B0008F7DF9CFCF93DF93282F50
:1003500030E0F901E257FD4F8491F901E658FD4F75
:10036000D491F901EA59FD4FC491CC23A1F0811138
:100370000E947C01EC2FF0E0EE0FFF1FE45AFD4FCE
:10038000A591B491EC91ED2381E090E009F480E037
:10039000DF91CF91089580E090E0FACF1F93CF9343
:1003A000DF93282F30E0F901E257FD4F8491F901E6
:1003B000E658FD4FD491F901EA59FD4FC491CC2381
:1003C000A9F0162F81110E947C01EC2FF0E0EE0FB6
:1003D000FF1FEE5AFD4FA591B4918FB7F894EC91A1
:1003E000111108C0D095DE23DC938FBFDF91CF9130
:1003F0001F910895DE2BF8CFCF93DF9390E0FC019F
:10040000E658FD4F24918A599D4FFC018491882321
:10041000D1F090E0880F991FFC01E85BFD4FA5919A
:10042000B491FC01EE5AFD4FC591D49161110EC0FB
:100430009FB7F8948C91E22FE0958E238C932881BE
:10044000E223E8839FBFDF91CF9108958FB7F8949F
:10045000EC91E22BEC938FBFF6CF3FB7F8948091ED
:10046000A3019091A401A091A501B091A60126B588
:10047000A89B05C02F3F19F00196A11DB11D3FBFDC
:10048000BA2FA92F982F8827BC01CD01620F711DAB
:10049000811D911D42E0660F771F881F991F4A95A5
:1004A000D1F708958F929F92AF92BF92CF92DF9231
:1004B000EF92FF920E942D024B015C0184E6C82E50
:1004C000D12CE12CF12C0E942D02681979098A099E
:1004D0009B09683E734081059105A8F321E0C21A8B
:1004E000D108E108F10888EE880E83E0981EA11C6F
:1004F000B11CC114D104E104F10429F7FF90EF907D
:10050000DF90CF90BF90AF909F908F900895AF9263
:10051000BF92CF92DF92EF92FF920F931F93CF93F0
:10052000DF936C017B018B01040F151FEB015E0152
:10053000AE18BF08C017D10759F06991D601ED91E7
:10054000FC910190F081E02DC6010995892B79F786
:10055000C501DF91CF911F910F91FF90EF90DF9038
:10056000CF90BF90AF900895FC01538D448D252FFF
:1005700030E0842F90E0821B930B541710F0CF963D
:10058000089501970895FC01918D828D981761F06F
:10059000A28DAE0FBF2FB11D5D968C91928D9F5F86
:1005A0009F73928F90E008958FEF9FEF0895FC0165
:1005B000918D828D981731F0828DE80FF11D858D18
:1005C00090E008958FEF9FEF0895FC01918D228DAB
:1005D000892F90E0805C9F4F821B91098F73992730
:1005E000089587EA91E00E94E50221E0892B09F451
:1005F00020E0822F089580E090E0892B29F00E946E
:10060000F10281110C9400000895FC01A48DA80F43
:10061000B92FB11DA35ABF4F2C91848D90E0019644
:100620008F739927848FA689B7892C93A089B18964
:100630008C91837080648C93938D848D981306C005
:100640000288F389E02D80818F7D80830895EF9269
:10065000FF920F931F93CF93DF93EC0181E0888F7C
:100660009B8D8C8D98131AC0E889F989808185FF4C
:1006700015C09FB7F894EE89FF896083E889F989EE
:1006800080818370806480839FBF81E090E0DF91F0
:10069000CF911F910F91FF90EF900895F62E0B8D43
:1006A00010E00F5F1F4F0F731127E02E8C8D8E11FE
:1006B0000CC00FB607FCFACFE889F989808185FF65
:1006C000F5CFCE010E940503F1CFEB8DEC0FFD2F8E
:1006D000F11DE35AFF4FF0829FB7F8940B8FEA8920
:1006E000FB8980818062CFCFCF93DF93EC01888D2F
:1006F0008823B9F0AA89BB89E889F9898C9185FD9D
:1007000003C0808186FD0DC00FB607FCF7CF8C912A
:1007100085FFF2CF808185FFEDCFCE010E940503DA
:10072000E9CFDF91CF910895089590E080E008959A
:100730008F929F92AF92BF92CF92DF92EF92FF92F1
:100740006B017C0180919A0181110FC080E090E0E3
:10075000A8ECB1E48093960190939701A09398013F
:10076000B093990181E080939A018FB7F8944091FA
:1007700044025091450260914602709147028FBF3A
:100780008091920190919301A0919401B091950173
:10079000481B590B6A0B7B0B4436510561057105EB
:1007A00008F456C08C599F4FAF4FBF4F80939201B2
:1007B00090939301A0939401B0939501809096013A
:1007C00090909701A0909801B090990120E030E0BE
:1007D00048EC52E4C701B6010E94C10E20E030E0AF
:1007E0004AE754E40E94620D20E030E040E251E428
:1007F0000E94620D2AE037ED43E65FE30E94620D3E
:10080000A50194010E94F10C6B017C0120E030E015
:1008100048EC51E4C501B4010E94F00C27E137EB2C
:1008200041ED58E30E94C10E20E030E040EA50E480
:100830000E94C10E9B01AC01C701B6010E94F00CE1
:10084000609396017093970180939801909399011A
:100850006091960170919701809198019091990112
:10086000FF90EF90DF90CF90BF90AF909F908F90D0
:100870000895EF92FF920F931F93CF93DF93EC01B4
:10088000042F8E810E94CE0160E088850E94CE01F7
:10089000FC80ED8018E0602F661F6627661F8E2D96
:1008A0000E94CE01000F61E08F2D0E94CE0160E01A
:1008B0008F2D0E94CE01115071F761E08885DF9184
:1008C000CF911F910F91FF90EF900C94CE01CF9399
:1008D000DF93262FC8E4D2E06A850E94330F492FA8
:1008E0009C87822F90E06B8529E3629F612D112404
:1008F000669570E06F5F7F4F0E943F0F8D87406865
:1009000060E0CE010E9439044D85406460E0CE0174
:10091000DF91CF910C943904CF93DF9360E080E0B6
:100920000E946704D0E0C0E08091530286958695CE
:10093000869590915202899FC0011124C817D9074A
:1009400040F440E061E088E492E00E94390421969E
:10095000EBCF60E080E0DF91CF910C946704FB0166
:1009600001900020E9F73197AF01461B570BDC01DE
:10097000ED91FC910280F381E02D09948F929F927A
:10098000AF92BF92EF92FF920F931F93CF93DF939B
:10099000CDB7DEB7A1970FB6F894DEBF0FBECDBFBF
:1009A0007C01FA01CB0119A2223008F42AE08E0161
:1009B0000F5D1F4F822E912CB12CA12CBF01A501E0
:1009C00094010E94BF0CF901CA016A300CF5605D08
:1009D000D8016E938D01232B242B252B79F790E0E2
:1009E00080E0109721F0BD01C7010E94AF04A196DD
:1009F0000FB6F894DEBF0FBECDBFDF91CF911F9130
:100A00000F91FF90EF90BF90AF909F908F900895BF
:100A1000695CDECF8F929F92AF92BF92CF92DF92AE
:100A2000EF92FF920F931F93CF93DF93EC016A0134
:100A30007B01AB019601CB01B6010E942E0F6EE146
:100A400071E0811126C046015701E894B7F82FEFF5
:100A50003FEF4FE75FE7C501B4010E942E0F811100
:100A60000CC02FEF3FEF4FE75FE7C501B4010E94D5
:100A70005D0D62E271E0181664F02FEF3FEF4FE773
:100A80005FE4C701B6010E94BC0E18168CF466E242
:100A900071E0CE01DF91CF911F910F91FF90EF9008
:100AA000DF90CF90BF90AF909F908F900C94AF0449
:100AB0002FEF3FEF4FE75FECC701B6010E945D0DDE
:100AC00087FDE5CF20E030E0A901C701B6010E9413
:100AD0005D0D10E000E087FF0DC0E881F981019015
:100AE000F081E02D6DE2CE0109958C01F7FAF094CA
:100AF000F7F8F0942AE037ED43EA5BE3C701B6016B
:100B00000E94F10C4B015C010E94DB0D6B017C012A
:100B10000E940A0E9B01AC01C501B4010E94F00CB9
:100B20004B015C012AE0B701A601CE010E94BE0480
:100B3000080F191FE881F9810190F081E02D6EE224
:100B4000CE010995080F191F20E030E040E251E482
:100B5000C501B4010E94C10E4B015C010E94DB0D76
:100B60006B01F12CE12C2AE0B701A601CE010E9415
:100B7000BE04080F191FC701B6010E940A0E9B018F
:100B8000AC01C501B4010E94F00C20E030E040E26D
:100B900051E40E94C10E0E94DB0DAB0170E060E0E9
:100BA0002AE0CE010E94BE04800F911FDF91CF91F9
:100BB0001F910F91FF90EF90DF90CF90BF90AF907B
:100BC0009F908F900895CF92DF92EF92FF920F93B4
:100BD0001F93CF93DF9300D000D01F92CDB7DEB725
:100BE00067FD66C07C01862F90E0603208F44FC03C
:100BF000809725E0289FB001299F700D1124685926
:100C00007F4F45E050E0CE0101960E94970C8E0187
:100C10000F5F1F4F680185E0C80ED11CF80141919C
:100C20008F0161E0C7010E9439040C151D05B1F761
:100C300040E061E0C7010E943904F701848590E03B
:100C40000696628570E00E943F0F8487892B79F4B5
:100C5000858590E00196638529E3629F612D1124CB
:100C6000669570E06F5F7F4F0E943F0F858781E040
:100C700090E00F900F900F900F900F90DF91CF9119
:100C80001F910F91FF90EF90DF90CF900895FC019E
:100C90003796EE0FFF1FEE0DFF1D0081118101152C
:100CA000110509F0B7CF45E050E068E670E0ABCF42
:100CB00090E080E0DECF1F920F920FB60F921124CA
:100CC0002F933F938F939F93AF93BF938091440251
:100CD00090914502A0914602B09147023091A20145
:100CE00023E0230F2D3758F50196A11DB11D209348
:100CF000A2018093440290934502A0934602B093D0
:100D000047028091A3019091A401A091A501B09107
:100D1000A6010196A11DB11D8093A3019093A4018A
:100D2000A093A501B093A601BF91AF919F918F9120
:100D30003F912F910F900FBE0F901F90189526E8AE
:100D4000230F0296A11DB11DD2CF1F920F920FB695
:100D50000F9211242F933F934F935F936F937F9341
:100D60008F939F93AF93BF93EF93FF9387EA91E0A5
:100D70000E940503FF91EF91BF91AF919F918F91D9
:100D80007F916F915F914F913F912F910F900FBE87
:100D90000F901F9018951F920F920FB60F9211246B
:100DA0002F938F939F93EF93FF93E091B701F0916F
:100DB000B8018081E091BD01F091BE0182FD1BC0B0
:100DC00090818091C0018F5F8F732091C101821744
:100DD00041F0E091C001F0E0E955FE4F958F80931E
:100DE000C001FF91EF919F918F912F910F900FBEB6
:100DF0000F901F9018958081F4CFE7EAF1E01382FD
:100E0000128288EE93E0A0E0B0E084839583A6830D
:100E1000B78384E091E09183808385EC90E09587AF
:100E2000848784EC90E09787868780EC90E0918BB4
:100E3000808B81EC90E0938B828B82EC90E0958BA1
:100E4000848B86EC90E0978B868B118E128E138E9E
:100E5000148EE2EAF2E08AE992E093A382A38EE99B
:100E600092E091A380A386E992E095A384A312AEB9
:100E700012AA13AA14AA15AA80E090E0AFE7B3E47F
:100E800086AB97ABA0AFB1AF44E650E060E070E056
:100E900046A757A760AB71AB158E148E21E030E0EA
:100EA000378F268F23AF84839583A683B7831086DD
:100EB0001186128613861486158616861786808BF1
:100EC000918BA28BB38B148A158A168A178A108E7F
:100ED000118E128E138E2FB7F89480914402909148
:100EE0004502A0914602B09147022FBF46A557A5E3
:100EF00060A971A9841B950BA60BB70B86A397A3BA
:100F0000A0A7B1A7E8E4F2E01382128286E191E0A3
:100F10009183808383E0848384E0858385E0868376
:100F200086E0878387E080870895CF93DF93CDB7EE
:100F3000DEB766970FB6F894DEBF0FBECDBF7894CC
:100F400084B5826084BD84B5816084BD85B58260CE
:100F500085BD85B5816085BD80916E00816080937F
:100F60006E001092810080918100826080938100E8
:100F700080918100816080938100809180008160F8
:100F8000809380008091B10084608093B100809153
:100F9000B00081608093B00080917A00846080937B
:100FA0007A0080917A00826080937A0080917A0042
:100FB000816080937A0080917A00806880937A00C3
:100FC0001092C100E091B701F091B80182E08083F6
:100FD000E091B301F091B4011082E091B501F0917C
:100FE000B60180E180831092BF01E091BB01F091D6
:100FF000BC0186E08083E091B901F091BA01808163
:1010000080618083E091B901F091BA0180818860AC
:101010008083E091B901F091BA018081806880837A
:10102000E091B901F091BA0180818F7D8083412CDC
:10103000512C612C93EC792E4092D4025092D5021F
:101040006092D6027092D702C12CD12CE12C23E4FD
:10105000F22EC092D802D092D902E092DA02F09237
:10106000DB028091DC022091C4023091C5023A83F8
:101070002983882309F4F4C0D9018D909D90AD9007
:10108000BC90A7019601C501B4010E94BC0E1816C0
:101090003CF5E981FA81C082D182E282F3828090BC
:1010A000A2029090A302A090A402B090A502C090CA
:1010B000D802D090D902E090DA02F090DB02A701CA
:1010C0009601C501B4010E94BC0E1816DCF4C09252
:1010D000A202D092A302E092A402F092A50222C042
:1010E00020E030E040E053ECC501B4010E945D0D0A
:1010F00087FFD5CFA981BA814D925D926D927C9286
:101100001397CDCFC090D402D090D502E090D602F4
:10111000F090D702A7019601C501B4010E945D0DB0
:1011200087FDD5CF80E090E0A0E1B2E48093960205
:1011300090939702A0939802B0939902CEC020E0BA
:1011400030E040E053ECC501B4010E945D0D87FF23
:10115000C4C04092A2025092A3026092A402709274
:10116000A502BBC08090D4029090D502A090D60278
:10117000B090D702A50194016D857E858F859889F1
:101180000E945D0D87FF5CC28092A2029092A30232
:10119000A092A402B092A50253C2C12CD12C760118
:1011A00060C25091D4025D878091D502898760909A
:1011B000D6027090D702252F382FA301B601C701A0
:1011C0000E945D0D87FF93C29601A7016D85798509
:1011D000C3010E94F00CA50194010E94F10C6093E0
:1011E000A2027093A3028093A4029093A502CD84DF
:1011F000D98473017CC2892B09F035C30E948C0409
:1012000032C320E030E040EF51E4C201B1010E945E
:10121000BC0E1816A4F420E030E048E252E4C2010B
:10122000B1010E945D0D87FF0AC060E088E00E9466
:10123000CE0161E089E00E94CE0160E027C320E09A
:1012400030E048E252E4C201B1010E94BC0E18161F
:101250000CF01FC361E088E00E94CE0160E0EACF9D
:1012600080E090E0A0E1B2E4809396029093970230
:10127000A0939802B0939902E981FA8180809180CD
:10128000A280B3808092A2029092A302A092A402B4
:10129000B092A502E091C202F091C30280819181D7
:1012A000A281B3818093CC029093CD02A093CE0211
:1012B000B093CF0220E030E040E053E4C501B40138
:1012C0000E94BC0E18160CF03ACFC092A202D09227
:1012D000A302E092A402F092A50281E08093DC02D6
:1012E00060E070E08AE790E40E94980360939E02B9
:1012F00070939F028093A0029093A1026AE271E032
:1013000087EA91E00E94AF0462E571E087EA91E02C
:101310000E94AF0460E082E00E94FC0184E58093BB
:10132000520280E3809353021092510210925402B1
:1013300010925502E6E5F2E080E4DF011D928A9505
:10134000E9F761E080914C020E94FC0161E080912C
:101350004D020E94FC0161E080914E020E94FC015E
:1013600061E080914F020E94FC0161E08091500297
:101370000E94FC0161E080914F020E94CE0161E079
:10138000809150020E94CE0160E080914F020E9445
:10139000CE010E94520261E080914F020E94CE0174
:1013A00041E260E088E492E00E94390443E160E0B9
:1013B00088E492E00E9439048091510242EC81302D
:1013C00039F440EE60E088E492E00E94390445E0A0
:1013D00060E088E492E00E94390440E260E088E442
:1013E00092E00E94390449E060E088E492E00E94C3
:1013F00039040E948C0448E060E088E492E00E9496
:1014000039044CE060E088E492E00E9439040E94D4
:10141000520240E860E088E492E00E94390440E42F
:1014200060E088E492E00E9439040E948C0461E04C
:1014300088E00E94FC0161E089E00E94FC0161E01B
:101440008AE00E94FC0160E08DE00E94FC01609156
:101450009A0270919B0280919C0290919D020E9441
:10146000D40D072E000C880B990B0E940C0E20E067
:1014700030E040EA51E40E94C10E20E030E040E05C
:101480005CE30E94C10E6D837E838F8398870E94E8
:1014900098031B012C0120929E0230929F024092E1
:1014A000A0025092A1028091DC02882309F472C14B
:1014B0008FB7F89420914402309145024091460242
:1014C00050914702298B3A8B4B8B5C8B8FBF80915D
:1014D000C8029091C902A091CA02B091CB02498979
:1014E0005A896B897C89481B590B6A0B7B0B80914D
:1014F000D0029091D102A091D202B091D3024817AC
:1015000059076A077B0708F445C1E091C202F091D0
:10151000C30280819181A281B38189839A83AB8345
:10152000BC83E091C602F091C7029C01AD016081CD
:101530007181828193810E94F00C6B017C0120916A
:10154000CC023091CD024091CE025091CF02698100
:101550007A818B819C810E94F00C69877A878B87C6
:101560009C872091B6023091B7024091B802509109
:10157000B902C701B6010E94C10E2091A2023091AA
:10158000A3024091A4025091A5020E94F10C4B01CC
:101590005C018092A2029092A302A092A402B09257
:1015A000A5027090DD0271101CC02091B202309132
:1015B000B3024091B4025091B50269857A858B855A
:1015C0009C850E94C10E9B01AC01C501B4010E9423
:1015D000F00C6093A2027093A3028093A4029093F4
:1015E000A5022091A2023091A3024091A402509141
:1015F000A5022D873E874F87588B1091D802009106
:10160000D9023091DA023E8B4091DB024D8B212FC3
:10161000302F4E895D896D857E858F8598890E94E2
:10162000BC0E18160CF09ECD812F902FAE89BD896F
:101630008093A2029093A302A093A402B093A50268
:10164000772009F4AACD2091B2023091B3024091E3
:10165000B4025091B502C701B6010E94C10E6B01E0
:101660007C018090A2029090A302A090A402B0906E
:10167000A5022091BA023091BB024091BC02509168
:10168000BD0269857A858B859C850E94C10E9B0170
:10169000AC01C501B4010E94F00CA70196010E94A3
:1016A000F10C6B017C019B01AC01612F702F8E89C5
:1016B0009D890E945D0D87FF74CD212F302F4E89AB
:1016C0005D89B601C7010E94F00C9B01AC01C50108
:1016D000B4010E94F00C6093A2027093A302809365
:1016E000A4029093A502C12ED02EEE88FD88E09131
:1016F000C402F091C502C601D70180839183A28301
:10170000B38329813A814B815C812093CC02309351
:10171000CD024093CE025093CF0289899A89AB893A
:10172000BC898093C8029093C902A093CA02B09367
:10173000CB0291E490937C0080917A008064809346
:101740007A0080917A0086FDFCCFA0917800B0915C
:101750007900B7FD179683E0B595A7958A95E1F7CF
:101760002CE330E00E94530F20E830E040E050E0EE
:101770000E94A00CCA01B9016C5E7F4F8F4F9F4F32
:101780000E940C0E609396027093970280939802C9
:101790009093990282E00E94A5018130910509F0A1
:1017A0002ACD60E080E00E94670465E571E088E48E
:1017B00092E00E94AF0461E080E00E946704B20101
:1017C000A10188E492E00E940A0561E08EE10E9496
:1017D000670462E671E088E492E00E94AF0462E090
:1017E00080E00E9467046BE671E088E492E00E946A
:1017F000AF0463E080E00E9467044D815E816F81E9
:10180000788588E492E00E940A0563E08EE10E94F8
:1018100067046AE771E088E492E00E94AF0464E044
:1018200080E00E94670461E871E088E492E00E9431
:10183000AF0465E080E00E946704409196025091F9
:101840009702609198027091990288E492E00E9458
:101850000A0565E08EE10E94670462E671E088E4B3
:1018600092E00E94AF0420E030E040EF51E4C2017A
:10187000B1010E945D0D87FFC4CC60E088E00E944A
:10188000CE0160E089E00E94CE0161E08AE00E9422
:10189000CE018DE00E94A5010197E1F540919602ED
:1018A00050919702609198027091990287EA91E0B5
:1018B0000E940A056FE871E087EA91E00E94AF0498
:1018C00040919A0250919B0260919C0270919D02FE
:1018D00087EA91E00E940A056FE871E087EA91E0EB
:1018E0000E94AF0440919E0250919F026091A0021D
:1018F0007091A10287EA91E00E940A0564E571E017
:1019000087EA91E00E94AF0462E571E087EA91E026
:101910000E94AF04A0E0B0E0AB2B09F498CD0E9488
:10192000F102882309F493CD0E94000090CDFB01C1
:10193000DC0102C005900D9241505040D8F7089547
:10194000052E97FB1EF400940E94B70C57FD07D09C
:101950000E94BF0C07FC03D04EF40C94B70C5095BA
:101960004095309521953F4F4F4F5F4F089590958B
:101970008095709561957F4F8F4F9F4F0895A1E29D
:101980001A2EAA1BBB1BFD010DC0AA1FBB1FEE1FF9
:10199000FF1FA217B307E407F50720F0A21BB30B44
:1019A000E40BF50B661F771F881F991F1A9469F7C0
:1019B00060957095809590959B01AC01BD01CF011C
:1019C0000895A29FB001B39FC001A39F700D811D18
:1019D0001124911DB29F700D811D1124911D089538
:1019E0005058BB27AA270E94080D0C94820E0E9413
:1019F000740E38F00E947B0E20F039F49F3F19F4EA
:101A000026F40C94710E0EF4E095E7FB0C946B0E2B
:101A1000E92F0E94930E58F3BA17620773078407E1
:101A2000950720F079F4A6F50C94B50E0EF4E09528
:101A30000B2EBA2FA02D0B01B90190010C01CA0188
:101A4000A0011124FF27591B99F0593F50F4503E33
:101A500068F11A16F040A22F232F342F4427585F25
:101A6000F3CF469537952795A795F0405395C9F73D
:101A70007EF41F16BA0B620B730B840BBAF09150F5
:101A8000A1F0FF0FBB1F661F771F881FC2F70EC094
:101A9000BA0F621F731F841F48F487957795679567
:101AA000B795F7959E3F08F0B0CF9395880F08F053
:101AB0009927EE0F9795879508950E94470E08F491
:101AC00081E008950E94760D0C94820E0E947B0E98
:101AD00058F00E94740E40F029F45F3F29F00C94F6
:101AE0006B0E51110C94B60E0C94710E0E94930E55
:101AF00068F39923B1F3552391F3951B550BBB273D
:101B0000AA2762177307840738F09F5F5F4F220F81
:101B1000331F441FAA1FA9F335D00E2E3AF0E0E878
:101B200032D091505040E695001CCAF72BD0FE2FC2
:101B300029D0660F771F881FBB1F26173707480756
:101B4000AB07B0E809F0BB0B802DBF01FF2793580E
:101B50005F4F3AF09E3F510578F00C946B0E0C9459
:101B6000B60E5F3FE4F3983ED4F38695779567957C
:101B7000B795F7959F5FC9F7880F911D9695879543
:101B800097F90895E1E0660F771F881FBB1F621762
:101B900073078407BA0720F0621B730B840BBA0B20
:101BA000EE1F88F7E09508950E94DB0D6894B1114F
:101BB0000C94B60E08950E949B0E88F09F5798F0E3
:101BC000B92F9927B751B0F0E1F0660F771F881F42
:101BD000991F1AF0BA95C9F714C0B13091F00E945C
:101BE000B50EB1E008950C94B50E672F782F8827B5
:101BF000B85F39F0B93FCCF3869577956795B39583
:101C0000D9F73EF490958095709561957F4F8F4FF1
:101C10009F4F0895E89409C097FB3EF490958095F6
:101C2000709561957F4F8F4F9F4F9923A9F0F92FA2
:101C300096E9BB279395F695879577956795B79520
:101C4000F111F8CFFAF4BB0F11F460FF1BC06F5F06
:101C50007F4F8F4F9F4F16C0882311F096E911C018
:101C6000772321F09EE8872F762F05C0662371F039
:101C700096E8862F70E060E02AF09A95660F771F4D
:101C8000881FDAF7880F9695879597F90895990F29
:101C90000008550FAA0BE0E8FEEF16161706E80736
:101CA000F907C0F012161306E407F50798F0621B57
:101CB000730B840B950B39F40A2661F0232B242B2C
:101CC000252B21F408950A2609F4A140A6958FEF4B
:101CD000811D811D089597F99F6780E870E060E09D
:101CE00008959FEF80EC089500240A9416161706B5
:101CF00018060906089500240A94121613061406FD
:101D000005060895092E0394000C11F4882352F05F
:101D1000BB0F40F4BF2B11F460FF04C06F5F7F4F17
:101D20008F4F9F4F089557FD9058440F551F59F0FE
:101D30005F3F71F04795880F97FB991F61F09F3FB8
:101D400079F087950895121613061406551FF2CFE1
:101D50004695F1DF08C0161617061806991FF1CF31
:101D600086957105610508940895E894BB27662758
:101D70007727CB0197F908950E94470E08F48FEF5B
:101D800008950E94D40E0C94820E0E94740E38F0B6
:101D90000E947B0E20F0952311F00C946B0E0C9496
:101DA000710E11240C94B60E0E94930E70F3959F41
:101DB000C1F3950F50E0551F629FF001729FBB2742
:101DC000F00DB11D639FAA27F00DB11DAA1F649FDE
:101DD0006627B00DA11D661F829F2227B00DA11D91
:101DE000621F739FB00DA11D621F839FA00D611D17
:101DF000221F749F3327A00D611D231F849F600D38
:101E0000211D822F762F6A2F11249F5750409AF060
:101E1000F1F088234AF0EE0FFF1FBB1F661F771FEC
:101E2000881F91505040A9F79E3F510580F00C94B7
:101E30006B0E0C94B60E5F3FE4F3983ED4F3869598
:101E400077956795B795F795E7959F5FC1F7FE2B57
:101E5000880F911D9695879597F908950E94470ED2
:101E6000880B990B0895991B79E004C0991F961768
:101E700008F0961B881F7A95C9F78095089597FBFF
:101E8000072E16F4009407D077FD09D00E945A0F50
:101E900007FC05D03EF4909581959F4F089570956D
:101EA00061957F4F08950E94E10CB7FF0895821B52
:101EB000930B0895AA1BBB1B51E107C0AA1FBB1FB0
:101EC000A617B70710F0A61BB70B881F991F5A95C6
:101ED000A9F780959095BC01CD010895EE0FFF1FE5
:0C1EE0000590F491E02D0994F894FFCFD8
:101EEC000000000027038702B4027403E502C3025A
:101EFC00D70200000000E3058702950394036E618E
:101F0C006E00696E66006F76660052656665726576
:101F1C006E6369612054656D706572617475726170
:101F2C002053616C6964615049442043616C6F7249
:101F3C0051000D0A0054656D70206465204F703A95
:101F4C0020002043656C736975730053656E616C7A
:101F5C00206465204374726C3A002057617474736A
:101F6C000054656D7020646573656164613A002C82
:021F7C00000063
:00000001FF
