:1000000014C01BC01AC019C018C017C016C015C034
:1000100014C013C012C012C010C00FC00EC00DC05B
:100020000CC00BC00AC009C008C011241FBECFE518
:10003000D1E0DEBFCDBF18D022C0E2CF1F920F9219
:100040000FB60F9211248F93B79B04C088B38378A7
:10005000806303C088B383788C6488BB8F910F90D2
:100060000FBE0F901F9018958FE787BBC79A8BB76D
:1000700080628BBF80B5806880BD7894FFCFF89494
:02008000FFCFB0
:00000001FF
